{
  "contractName": "BridgeSol",
  "abi": [
    {
      "inputs": [
        {
          "internalType": "address",
          "name": "token",
          "type": "address"
        }
      ],
      "stateMutability": "nonpayable",
      "type": "constructor"
    },
    {
      "anonymous": false,
      "inputs": [
        {
          "indexed": false,
          "internalType": "address",
          "name": "from",
          "type": "address"
        },
        {
          "indexed": false,
          "internalType": "address",
          "name": "to",
          "type": "address"
        },
        {
          "indexed": false,
          "internalType": "uint256",
          "name": "amount",
          "type": "uint256"
        },
        {
          "indexed": false,
          "internalType": "uint256",
          "name": "date",
          "type": "uint256"
        },
        {
          "indexed": false,
          "internalType": "uint256",
          "name": "nonce",
          "type": "uint256"
        },
        {
          "indexed": false,
          "internalType": "bytes",
          "name": "signature",
          "type": "bytes"
        },
        {
          "indexed": true,
          "internalType": "enum BridgeBase.Step",
          "name": "step",
          "type": "uint8"
        }
      ],
      "name": "Transfer",
      "type": "event"
    },
    {
      "inputs": [],
      "name": "admin",
      "outputs": [
        {
          "internalType": "address",
          "name": "",
          "type": "address"
        }
      ],
      "stateMutability": "view",
      "type": "function"
    },
    {
      "inputs": [
        {
          "internalType": "address",
          "name": "to",
          "type": "address"
        },
        {
          "internalType": "uint256",
          "name": "tokenId",
          "type": "uint256"
        },
        {
          "internalType": "uint256",
          "name": "nonce",
          "type": "uint256"
        },
        {
          "internalType": "bytes",
          "name": "signature",
          "type": "bytes"
        }
      ],
      "name": "burn",
      "outputs": [],
      "stateMutability": "nonpayable",
      "type": "function"
    },
    {
      "inputs": [
        {
          "internalType": "address",
          "name": "from",
          "type": "address"
        },
        {
          "internalType": "address",
          "name": "to",
          "type": "address"
        },
        {
          "internalType": "uint256",
          "name": "tokenId",
          "type": "uint256"
        },
        {
          "internalType": "uint256",
          "name": "nonce",
          "type": "uint256"
        },
        {
          "internalType": "bytes",
          "name": "signature",
          "type": "bytes"
        }
      ],
      "name": "mint",
      "outputs": [],
      "stateMutability": "nonpayable",
      "type": "function"
    },
    {
      "inputs": [
        {
          "internalType": "address",
          "name": "",
          "type": "address"
        },
        {
          "internalType": "uint256",
          "name": "",
          "type": "uint256"
        }
      ],
      "name": "processedNonces",
      "outputs": [
        {
          "internalType": "bool",
          "name": "",
          "type": "bool"
        }
      ],
      "stateMutability": "view",
      "type": "function"
    },
    {
      "inputs": [],
      "name": "token",
      "outputs": [
        {
          "internalType": "contract IToken",
          "name": "",
          "type": "address"
        }
      ],
      "stateMutability": "view",
      "type": "function"
    }
  ],
  "bytecode": "0x608060405234801561001057600080fd5b506040516200101c3803806200101c83398181016040528101906100349190610120565b80336000806101000a81548173ffffffffffffffffffffffffffffffffffffffff021916908373ffffffffffffffffffffffffffffffffffffffff16021790555080600160006101000a81548173ffffffffffffffffffffffffffffffffffffffff021916908373ffffffffffffffffffffffffffffffffffffffff160217905550505061014d565b600080fd5b600073ffffffffffffffffffffffffffffffffffffffff82169050919050565b60006100ed826100c2565b9050919050565b6100fd816100e2565b811461010857600080fd5b50565b60008151905061011a816100f4565b92915050565b600060208284031215610136576101356100bd565b5b60006101448482850161010b565b91505092915050565b610ebf806200015d6000396000f3fe608060405234801561001057600080fd5b50600436106100575760003560e01c8063525557021461005c5780637cc70240146100785780638a94b05f146100a8578063f851a440146100c4578063fc0c546a146100e2575b600080fd5b6100766004803603810190610071919061084b565b610100565b005b610092600480360381019061008d91906108e5565b6103ef565b60405161009f9190610940565b60405180910390f35b6100c260048036038101906100bd919061095b565b61041e565b005b6100cc610616565b6040516100d991906109f2565b60405180910390f35b6100ea61063a565b6040516100f79190610a6c565b60405180910390f35b60006101378787878760405160200161011c9493929190610af0565b60405160208183030381529060405280519060200120610660565b90508673ffffffffffffffffffffffffffffffffffffffff1661019e8285858080601f016020809104026020016040519081016040528093929190818152602001838380828437600081840152601f19601f82011690508083019250505050505050610690565b73ffffffffffffffffffffffffffffffffffffffff16146101f4576040517f08c379a00000000000000000000000000000000000000000000000000000000081526004016101eb90610b9b565b60405180910390fd5b60001515600260008973ffffffffffffffffffffffffffffffffffffffff1673ffffffffffffffffffffffffffffffffffffffff168152602001908152602001600020600086815260200190815260200160002060009054906101000a900460ff16151514610298576040517f08c379a000000000000000000000000000000000000000000000000000000000815260040161028f90610c07565b60405180910390fd5b6001600260008973ffffffffffffffffffffffffffffffffffffffff1673ffffffffffffffffffffffffffffffffffffffff168152602001908152602001600020600086815260200190815260200160002060006101000a81548160ff021916908315150217905550600160009054906101000a900473ffffffffffffffffffffffffffffffffffffffff1673ffffffffffffffffffffffffffffffffffffffff166340c10f1987876040518363ffffffff1660e01b815260040161035e929190610c36565b600060405180830381600087803b15801561037857600080fd5b505af115801561038c573d6000803e3d6000fd5b505050506001808111156103a3576103a2610c5f565b5b7fce5a9b86edd3b998c3948a7934c7ecf7dba73c4c5bcf56cf576bca4aa2beeb30888888428989896040516103de9796959493929190610cec565b60405180910390a250505050505050565b60026020528160005260406000206020528060005260406000206000915091509054906101000a900460ff1681565b60001515600260003373ffffffffffffffffffffffffffffffffffffffff1673ffffffffffffffffffffffffffffffffffffffff168152602001908152602001600020600085815260200190815260200160002060009054906101000a900460ff161515146104c2576040517f08c379a00000000000000000000000000000000000000000000000000000000081526004016104b990610c07565b60405180910390fd5b6001600260003373ffffffffffffffffffffffffffffffffffffffff1673ffffffffffffffffffffffffffffffffffffffff168152602001908152602001600020600085815260200190815260200160002060006101000a81548160ff021916908315150217905550600160009054906101000a900473ffffffffffffffffffffffffffffffffffffffff1673ffffffffffffffffffffffffffffffffffffffff166342966c68856040518263ffffffff1660e01b81526004016105869190610d56565b600060405180830381600087803b1580156105a057600080fd5b505af11580156105b4573d6000803e3d6000fd5b50505050600060018111156105cc576105cb610c5f565b5b7fce5a9b86edd3b998c3948a7934c7ecf7dba73c4c5bcf56cf576bca4aa2beeb30338787428888886040516106079796959493929190610cec565b60405180910390a25050505050565b60008054906101000a900473ffffffffffffffffffffffffffffffffffffffff1681565b600160009054906101000a900473ffffffffffffffffffffffffffffffffffffffff1681565b6000816040516020016106739190610df3565b604051602081830303815290604052805190602001209050919050565b60008060008061069f85610705565b809350819450829550505050600186848484604051600081526020016040526040516106ce9493929190610e44565b6020604051602081039080840390855afa1580156106f0573d6000803e3d6000fd5b50505060206040510351935050505092915050565b6000806000604184511461071857600080fd5b60008060006020870151925060408701519150606087015160001a90508083839550955095505050509193909250565b600080fd5b600080fd5b600073ffffffffffffffffffffffffffffffffffffffff82169050919050565b600061077d82610752565b9050919050565b61078d81610772565b811461079857600080fd5b50565b6000813590506107aa81610784565b92915050565b6000819050919050565b6107c3816107b0565b81146107ce57600080fd5b50565b6000813590506107e0816107ba565b92915050565b600080fd5b600080fd5b600080fd5b60008083601f84011261080b5761080a6107e6565b5b8235905067ffffffffffffffff811115610828576108276107eb565b5b602083019150836001820283011115610844576108436107f0565b5b9250929050565b60008060008060008060a0878903121561086857610867610748565b5b600061087689828a0161079b565b965050602061088789828a0161079b565b955050604061089889828a016107d1565b94505060606108a989828a016107d1565b935050608087013567ffffffffffffffff8111156108ca576108c961074d565b5b6108d689828a016107f5565b92509250509295509295509295565b600080604083850312156108fc576108fb610748565b5b600061090a8582860161079b565b925050602061091b858286016107d1565b9150509250929050565b60008115159050919050565b61093a81610925565b82525050565b60006020820190506109556000830184610931565b92915050565b60008060008060006080868803121561097757610976610748565b5b60006109858882890161079b565b9550506020610996888289016107d1565b94505060406109a7888289016107d1565b935050606086013567ffffffffffffffff8111156109c8576109c761074d565b5b6109d4888289016107f5565b92509250509295509295909350565b6109ec81610772565b82525050565b6000602082019050610a0760008301846109e3565b92915050565b6000819050919050565b6000610a32610a2d610a2884610752565b610a0d565b610752565b9050919050565b6000610a4482610a17565b9050919050565b6000610a5682610a39565b9050919050565b610a6681610a4b565b82525050565b6000602082019050610a816000830184610a5d565b92915050565b60008160601b9050919050565b6000610a9f82610a87565b9050919050565b6000610ab182610a94565b9050919050565b610ac9610ac482610772565b610aa6565b82525050565b6000819050919050565b610aea610ae5826107b0565b610acf565b82525050565b6000610afc8287610ab8565b601482019150610b0c8286610ab8565b601482019150610b1c8285610ad9565b602082019150610b2c8284610ad9565b60208201915081905095945050505050565b600082825260208201905092915050565b7f77726f6e67207369676e61747572650000000000000000000000000000000000600082015250565b6000610b85600f83610b3e565b9150610b9082610b4f565b602082019050919050565b60006020820190508181036000830152610bb481610b78565b9050919050565b7f7472616e7366657220616c72656164792070726f636573736564000000000000600082015250565b6000610bf1601a83610b3e565b9150610bfc82610bbb565b602082019050919050565b60006020820190508181036000830152610c2081610be4565b9050919050565b610c30816107b0565b82525050565b6000604082019050610c4b60008301856109e3565b610c586020830184610c27565b9392505050565b7f4e487b7100000000000000000000000000000000000000000000000000000000600052602160045260246000fd5b600082825260208201905092915050565b82818337600083830152505050565b6000601f19601f8301169050919050565b6000610ccb8385610c8e565b9350610cd8838584610c9f565b610ce183610cae565b840190509392505050565b600060c082019050610d01600083018a6109e3565b610d0e60208301896109e3565b610d1b6040830188610c27565b610d286060830187610c27565b610d356080830186610c27565b81810360a0830152610d48818486610cbf565b905098975050505050505050565b6000602082019050610d6b6000830184610c27565b92915050565b600081905092915050565b7f19457468657265756d205369676e6564204d6573736167653a0a333200000000600082015250565b6000610db2601c83610d71565b9150610dbd82610d7c565b601c82019050919050565b6000819050919050565b6000819050919050565b610ded610de882610dc8565b610dd2565b82525050565b6000610dfe82610da5565b9150610e0a8284610ddc565b60208201915081905092915050565b610e2281610dc8565b82525050565b600060ff82169050919050565b610e3e81610e28565b82525050565b6000608082019050610e596000830187610e19565b610e666020830186610e35565b610e736040830185610e19565b610e806060830184610e19565b9594505050505056fea264697066735822122033ae630ddb6fa2079102a7e452e01323221327f4ef49999cfcd4bb07520e043b64736f6c634300080b0033",
  "immutableReferences": {},
  "source": "// SPDX-License-Identifier: MIT\npragma solidity ^0.8.0;\n\nimport './BridgeBase.sol';\n\ncontract BridgeSol is BridgeBase {\n  constructor(address token) BridgeBase(token) {}\n}",
  "sourcePath": "/home/shisuimadara/solana-eth-bridge/contracts/BridgeSol.sol",
  "compiler": {
    "name": "solc",
    "version": "0.8.11+commit.d7f03943.Emscripten.clang"
  },
  "schemaVersion": "3.4.4",
  "updatedAt": "2022-02-13T08:37:04.605Z",
  "networkType": "ethereum",
  "devdoc": {
    "kind": "dev",
    "methods": {},
    "version": 1
  },
  "userdoc": {
    "kind": "user",
    "methods": {},
    "version": 1
  }
}